:1000000012C02CC02BC02AC029C028C01CC126C0C9
:1000100025C0D7C023C022C021C020C01FC01EC021
:100020001DC01CC01BC011241FBECFE5D4E0DEBF25
:10003000CDBF10E0A0E6B0E0E6ECF2E002C0059033
:100040000D92AC36B107D9F710E0ACE6B0E001C0D4
:100050001D92A437B107E1F71DD133C1D1CFFC0107
:1000600068EE73E01AD124E630E0B90116D170933E
:100070006F0060936E00CF01B9010FD12AE030E02C
:10008000B9010BD17093710060937000CF01B90179
:1000900004D190937300809372000895E0DF089577
:1000A0008EB58B7F8EBD8EB583608EBD89B7806126
:1000B00089BF8DE38BBD89E08ABD1DBC1CBC8EB59C
:1000C00088608EBD089583B7826083BF83B78A7FBF
:1000D00083BF89B7816089BF12BE78948FEF81BBDF
:1000E00097EF94BB90E897BB85BB8FE382BB8FE70C
:1000F00088BB0895B6991EC080916A008F5F809377
:100100006A00AFE4B3EC1197F1F700C000008A3049
:1001100018F081E080936A0080916A0090E09FDF90
:10012000BDDF8FEF90E7A2E081509040A040E1F763
:1001300000C00000B2991AC020916A0080916C0042
:1001400090916D00820F911D90936D0080936C00D3
:10015000AFE4B3EC1197F1F700C00000B3E0883EC4
:100160009B0724F010926D0010926C00B1991AC098
:1001700020916A0080916C0090916D00821B910922
:1001800090936D0080936C00EFE4F3EC3197F1F7FE
:1001900000C00000992334F487EE93E090936D0043
:1001A00080936C00B09907C07BDF8FE493EC0197DC
:1001B000F1F700C0000080916C0090916D006EDF3F
:1001C00008951F920F920FB60F9211248F93EF9301
:1001D000FF9380916B00813049F485BBE0916E0004
:1001E000F0916F00E05AFF4F808182BB80916B00DD
:1001F000823049F485BBE0917000F0917100E05AC3
:10020000FF4F808182BB80916B00833051F484E08A
:1002100085BBE0917200F0917300E05AFF4F80813E
:1002200082BB80916B008F5F80936B00843018F0ED
:1002300081E080936B00FF91EF918F910F900FBE43
:100240000F901F9018951F920F920FB60F921124C6
:100250008F939F9380916C0090916D000197909384
:100260006D0080936C00992324F410926D0010921D
:100270006C00C79A80916C0090916D00009711F40A
:10028000C79801C0C79A9F918F910F900FBE0F9092
:100290001F90189518DF2EDFFECFAA1BBB1B51E164
:1002A00007C0AA1FBB1FA617B70710F0A61BB70BE6
:1002B000881F991F5A95A9F780959095BC01CD018B
:0602C0000895F894FFCF41
:0C02C6003F065B4F666D7D077F6F0101F6
:04000003000000A059
:00000001FF
